:400000000080002011000000350500003505000080B500AF034A044B1B68136000F0D0FB00F092FABC760040FA46004010B5054C237833B9044B13B10448AFF300800123BA
:40004000237010BD4881FF1F00000000D43F0000084B10B51BB108490848AFF300800848036803B910BD074B002BFBD0BDE81040184700BF000000004C81FF1FD43F0000E2
:40008000C880FF1F0000000080B400AF494A494B1B78DBB223F00103DBB21370464A464B1B78DBB223F00103DBB21370434A434B1B78DBB223F00103DBB21370404A404BAA
:4000C0001B78DBB223F00103DBB213703D4A3D4B1B78DBB223F00103DBB213703A4A3A4B1B78DBB223F00103DBB21370374A374B1B78DBB223F00103DBB21370344A344BCC
:400100001B78DBB223F00103DBB21370314A314B1B78DBB223F00103DBB213702E4A2E4B1B78DBB223F00103DBB213702B4A2B4B1B78DBB223F00103DBB21370284A284BEB
:400140001B78DBB223F00103DBB21370254A254B1B78DBB223F00103DBB21370224A224B1B78DBB223F00103DBB213701F4A1F4B1B78DBB223F00103DBB213701C4A1C4B0B
:400180001B78DBB223F00103DBB21370194A194B1B78DBB223F00103DBB21370164A164B1B78DBB223F00103DBB2137000BFBD4680BC7047025000407C50004000500040FF
:4001C000045000400C500040075000400350004005500040065000400D5000400E5000400F5000400A500040175000401650004013500040125000407D50004080B500AF83
:40020000FFF742FF00F07EFAFEE700BF80B582B000AF786039603A680021786803F0CDFE00BF0837BD4680BD80B584B000AFF860B9607A607A68B968F86803F0B3FE00BF2C
:400240001037BD4680BD00BF80B584B000AFF860B9607A607A68B968F86803F0A3FE00BF1037BD4680BD00BF80B483B000AF0346FB71FEE780B487B000AF7860396000237B
:400280003B6100237B6127E07B699B007A6813441B68BB60BB68FB73BB6823F0FF03BB6014E03B695B003A6813441B781A46BB68134419463B695B003A6813445B780B7064
:4002C0003B6901333B61FB7B013BFB73FB7B002BE7D17B6901337B617B690B2BD4D900BF1C37BD4680BC704780B582B000AF294B06221A70284B52221A70284B284A127832
:40030000D2B21A70274B40F618021A80264B41F251221A800023FB7019237B6014E0FB785B00DAB2214B1B78DBB203F00103DBB21343DBB203F00303FB704FF4F07001F0C4
:400340007BFC7B68013B7B607B68002B02D0FB78032BE4D17B68002B02D10320FFF784FF134B4FF480721A80114B07221A70114B00221A70104B48221A700D4B00221A70C2
:400380000E4B00221A700E4B02221A7000BF0837BD4680BD0043004000420040A14600400F0100492242004020420040254200400440004006400040084000400940004066
:4003C0000140004080B483B000AF0B4B1B78FB710A4AFB7903F00703DBB21370084AFB791B09DBB21370074B44221A7000BF0C37BD4680BC704700BFCF0100496E5800402A
:400400006F5800407658004080B582B000AF72B6344B61221A70FFF767FF324B01221A70314A314B1B78DBB243F00403DBB213700023FB7113E0FA7913465B0013445B009B
:400440002A4A13443B603B681A683B689B889BB219461046FFF7DAFEFB790133FB71FB79062BE8D922492348FFF704FF224A224B1B78DBB243F00203DBB213701F4A1F4BFE
:400480001B78DBB243F00203DBB213700A221C491C48FFF7D9FE0A221B491C48FFF7D4FE0A221B491B48FFF7CFFE0A221A491B48FFF7CAFE08221A491A48FFF7C5FE1A4AE4
:4004C000194B1B78DBB243F00803DBB21370FFF779FF0E2215491648FFF7A6FE00BF0837BD4680BD00480040E8460040D83F000034400000044000000350014013500140FB
:40050000644000000051004070400000F05100407C400000105100408840000020510040944000003251004022430040A0430040B043004080B500AF03F008FD03461B6845
:400540000C2B00D1FEE7FEE780B586B000AF224B7B61224B3B61204B7B6135E03B691B68FB603B695B68BB603B699B683B6000237B600CE0FB681A68BB681A60BB680433D5
:40058000BB60FB680433FB607B6804337B607A683B689A42EED13B69DB683B6000237B6008E0BB6800221A60BB680433BB607B6804337B607A683B689A42F2D13B6910337A
:4005C0003B617B69013B7B617B69002BC6D103F0C3FCFFF713FEFEE7010000003042000080B582B000AF184B184A1A60184A184B1B6843F40073136000237B600FE07B6822
:40060000032B04D8134A7B6852F8233000E0124B12497A6841F822307B6801337B607B682F2BECD90E4B1B78DAB20E4B1A700E4B0A4A1A60FFF7E8FE0C4B00221A6000BFCA
:400640000837BD4680BD00BF0CED00E00004FA0514ED00E000000000350500000080FF1FBC760040C480FF1F08ED00E0C080FF1F80B485B000AF78600B467B800023FB81C5
:400680000BE07B88013B7A6813441B789AB2FB891344FB817B88013B7B807B88002BF0D1FB895B429BB218461437BD4680BC704780B586B000AFF860B9607A600023FB7573
:4006C000FB680F4A934213D0FB68002B10D0002001F036F80CE07B68013B7B60FA68BB681A447B6813441B78DAB2FB7D1344FB757B68002BEFD1FB7D18461837BD4680BD45
:400700000080004080B582B000AF06237B6000F0F9FE0346002B02D0002001F011F8002000F076F80346002B01D100237B601B4B1B681B681A4600210020FFF7B9FF0346D2
:40074000FB70174B1B681B78FA78D31AFB70FB785B42FB70124B1B681B78FA789A4204D10E4B1B681B68002B02D1002000F0E8FF0C4B1B78DBB203F0C003402B02D07B681A
:40078000002B05D0074B00221A70002000F0CCF800F00AF800BF0837BD4680BDD080FF1FCC80FF1FFA46004080B500AF034B80221A7000F0D1FF00BF80BD00BFFA46004086
:4007C00080B582B000AF104B1B78DBB203F0C003802B15D10023FB710B4B00221A70FB791946022000F018FD0346002B08D0FB791946022000F010FD0346184600F006F8C3
:4008000000BF0837BD4680BDFA460040004700BF90B587B000AF0346FB71FB791946032000F0FAFC034601331C02FB791946042000F0F2FC03462344FB600023FB74002308
:40084000BB74FB791946062000F0E6FC0346012B01D1002362E0FB791946032000F0DCFC034601331B027B6111E07B691B78FB72FB7A002B04D0FB7AFF2B01D00123FB7452
:40088000BA7CFB7A1344BB747B6901337B617A69FB689A42E9D3FB791946032000F0BCFC034601331B02DB087B61FB681D4A934202D0FB68DB0801E04FF40043FB600AE0DB
:4008C0007B6903F190431B78DAB2BB7C1344BB747B6901337B617A69FB689A42F0D3BB7C5B42BB74BC7CFB791946012000F094FC03469C4202D1FB7C002B01D106230DE065
:40090000FA7913461B069B1A1B0203F57F3303F2D1330121184600F027FC002318461C37BD4690BDC0FF030080B5ADF5747D00AF0246FB1D1A700023A7F8CA330A2387F810
:40094000C933002387F8C833002387F8C7330023A7F8C43301F080F962B6002387F8CD33FB1D1B78002B02D0FB1D1B7800E0FF2307F5687207F51D704FF4967101F0C2F9BB
:40098000C7F8B403FB1D1B78002B04D097F8C933013B87F8C93397F8C933002B03D0D7F8B433002BDCD1D7F8B433002B40F07D83B7F8A033062B04D907F51D731B78012BD2
:4009C00003D0042387F8CD334FE007F51D73DB789BB21B029AB207F51D739B789BB21343A7F8CA33B7F8CA330733B7F8A023934205D8B7F8CA330733B3F5967F03D903232D
:400A000087F8CD3331E0B7F8CA33053307F51D72D35C9BB21B029AB2B7F8CA33043307F51D71CB5C9BB21343A7F8B233B7F8CA33063307F51D72D35C172B03D0042387F8BD
:400A4000CD3312E0B7F8CA3304339AB207F51D7311461846FFF70CFE03461A46B7F8B233934202D0082387F8CD330023A7F8CE3397F8CD33002B40F00E8307F51D731B7928
:400A800087F8B133042387F8CD3307F51D735B78313B0A2B00F2938201A252F823F000BFCD0A0000090B0000BF0F0000A70B00007D0D0000BF0F00008F0D0000E10D00001A
:400AC000A70B00002D0E0000A30F000097F8C733012B40F0CF82B7F8CA33002B40F0CA820020FFF795FE0346002B0CBF01230023DBB21A4607F51D731A710123A7F8CE33D7
:400B0000002387F8CD33B5E297F8C733012B40F0B382B7F8CA33012B40F0AE8297F8B133032B00F2A982D74B1B681B681B0C87F8B03397F8B12397F8B0339A4208D1D14B15
:400B40001B681B681B0A9BB2DBB2A7F8C2330DE097F8B12397F8B0339A4203D90023A7F8C23303E04FF48073A7F8C233B7F8C233DAB207F51D731A71B7F8C2331B0A9BB2A1
:400B8000DAB207F51D735A7107F51D73FF229A7107F51D730022DA710423A7F8CE33002387F8CD3368E207F51D735B78342B21D197F8C733012B40F06E82B7F8CA33032B8F
:400BC00040F0698297F8B1333F2B07D997F9B133002B03DB1023A7F8C43303E04FF49073A7F8C433B7F8C42307F5A4730021184603F0E3F997F8C733012B40F03F82B7F8CC
:400C0000CA33022B40F23A82B7F8C43307F5A472D018B7F8CA33DA1E07F51D730733194603F0C0F9B7F8C423B7F8CA3313449BB2033BA7F8C43397F8B1333F2B0CD997F97B
:400C4000B133002B08DB00F035FD1023A7F8CA338023A7F8C03307E04FF49073A7F8CA334FF48073A7F8C033B7F8C423B7F8CA339A427CD107F51D739B799BB21B029AB20A
:400C800007F51D735B799BB21343A7F8C433B7F8C423B7F8C0339A4201D2002300E00A2387F8CD3397F8CD33002B40F0E98197F8B1333F2B46D897F8B1339BB21B029AB28D
:400CC000B7F8C4331344A7F8AE336E4B1B681B681B0AA7F8BE336B4B1B681B68DBB2002B04D0B7F8BE330133A7F8BE33B7F8AE23B7F8BE339A4206D20A2387F8CD330023B4
:400D0000A7F8C433C7E197F8C833002B1AD107F10C034FF490720021184603F04EF9002387F8AD3397F8AD339BB2C3F1FF0399B207F10C024FF49073032000F011FC012301
:400D400087F8C833B7F8CA3307F5A472B7F8C41397F8B10300F004FC0346002B01D00A2300E0002387F8CD3300F03CFD02E0032387F8CD330023A7F8C4337FE197F8C7333C
:400D8000012B40F07F810023A7F8C4338EE197F8C733012B40F07881B7F8C423B7F8CA331344B3F5967F17D8002387F8CD33B7F8C43307F5A472D018B7F8CA2307F51D7322
:400DC0000433194603F0EEF8B7F8C423B7F8CA331344A7F8C43357E1032387F8CD3353E1B7F8CA33002B1DD107F5A073264A92E8030083E80300012387F8C7330823A7F8AE
:400E0000CE330023A7F8C433B7F8CE2307F5A07107F51D730433184603F0C4F8002387F8CD3338E1042387F8CD3334E197F8C733012B40F02B81B7F8CA33032B40F02681C3
:400E400007F51D739B799BB21B029AB207F51D735B799BB21343A7F8AA3397F8B1333F2B26D997F9B133002B22DB00F023FCB7F8AA331B01C7F8A433B7F8AA337F2B05D8C5
:400E8000002304E0D080FF1F9C4000000A2387F8CD3397F8CD33002B40F0FA801022D7F8A4138A48FFF704FC034687F8BD3320E097F8B1331A02B7F8AA3313441B02C7F84B
:400EC000A433B7F8AA33FF2B01D8002300E00A2387F8CD3397F8CD33002B40F0DB804FF48072D7F8A4130020FFF7E2FB034687F8BD3397F8B1333F2B23D897F8B13303F5EF
:400F000010331A02B7F8AA3313445B01C7F8A4330023A7F8BA3310E0B7F8BA23D7F8A43313441B78DAB297F8BD33134487F8BD33B7F8BA330133A7F8BA33B7F8BA331F2BAF
:400F4000EAD9B7F8AA33A7F8A23397F8B133032B19D1B7F8A233FF2B15D10021052000F05BF90346DBB297F8BD23D31A87F8BD330021062000F050F90346DBB297F8BD239F
:400F8000D31A87F8BD3397F8BD335B42DAB207F51D731A71002387F8CD330123A7F8CE3374E00020FFF734FC0346002B02D1484B80221A7000F05EFE00F0CEFB6BE0454B30
:400FC0001B68002B51D097F8C733012B4DD107F51D735A7807F59C731A7007F59C73B7F8CA235A8007F59C7307F51D7204325A6007F596730C220021184602F0DEFF07F5D8
:40100000967307F51D7204329A60324B1B6807F5967107F59C721046984707F596739B88A7F8CE33B7F8CE33B3F5937F07D307F596739A6807F51D7304339A4208D007F524
:4010400096739B68002B0AD1B7F8CE33002B06D00E2387F8CD330023A7F8CE3309E007F596731B6887F8CD3303E0052387F8CD3311E010E000BF0EE000BF0CE000BF0AE0DE
:4010800000BF08E000BF06E000BF04E000BF02E000BF00E000BFB7F8CE2307F51D7197F8CD33184600F018F800E000BFFB1D1B78002B3FF452AC97F8C733012B3FF44DACA4
:4010C00000BF07F57477BD4680BD00BF00800040FA4600406481FF1F80B584B000AF03463960FB711346BB803B6801221A703B680133FA791A703B680233BA88D2B21A70C2
:401100003B680333BA88120A92B2D2B21A70BB8804339BB219463868FFF7AAFA0346FB81BB8804333A681344FA89D2B21A70BB8805333A681344FA89120A92B2D2B21A7098
:40114000BB8806333A68134417221A70BB88073399B23A1D9623386800F09AFD034618461037BD4680BD00BF80B5C6B000AF3B1D18600A46FB1C1A703B1D1B68C7F8103155
:40118000D7F810311B0C87F80F31D7F810319BB21B0AA7F80C313B1D1B6823F0FF03C7F808310023A7F816310FE0B7F81631B7F81611D7F808210A44117807F10802D15439
:4011C000B7F816310133A7F81631B7F81631FF2BEBD93B1D1B68DBB207F10802D35CFA1C12789A4212D03B1D1B68DBB207F10802F91C0978D15407F10802B7F80C1197F882
:401200000F31184600F090F900F0ECFA00BF07F58C77BD4680BD00BF80B586B000AF03460A46FB711346BB710223FB740023FB60FB79013B0B2B00F2AF8001A252F823F047
:40124000711200008B120000A5120000BB120000D5120000EF1200001F13000009130000351300004B130000651300007F130000BA7913461B069B1A1B0203F57F3303F5C3
:4012800070737B610123FB748CE0BA7913461B069B1A1B0203F57F3303F2C1337B610423FB747FE0BA7913461B069B1A1B0203F57F3303F2C5337B6174E0BA7913461B069A
:4012C0009B1A1B0203F57F3303F2C9337B610423FB7467E0BA7913461B069B1A1B0203F57F3303F574737B610123FB745AE0BA7913461B069B1A1B0203F57F3303F2D133F5
:401300007B610123FB744DE0BA7913461B069B1A1B0203F57F3303F2D6337B6142E0BA7913461B069B1A1B0203F57F3303F2D2337B6137E0BA7913461B069B1A1B0203F55F
:401340007F3303F575737B612CE0BA7913461B069B1A1B0203F57F3303F576737B610423FB741FE0BA7913461B069B1A1B0203F57F3303F577737B610123FB7412E0BA79D9
:4013800013461B069B1A1B0203F57F3303F578737B610423FB7405E0002000F0D1F900237B6100BFFB7C012B03D17B691B78DBB2FB60FB7C022B0BD17B691B78DBB2FB60B0
:4013C0007B6901331B78DBB21B02FA681343FB60FB7C042B1BD17B691B78DBB2FB607B6901331B78DBB21B02FA681343FB607B6902331B78DBB21B04FA681343FB607B69DD
:4014000003331B78DBB21B06FA681343FB60FB6818461837BD4680BD80B582B000AF00F05BFA4FF0FF337B6000F088FB0346002B24D1012000F050FB0346072B1BD1022169
:40144000124800F06DFA0346022B0DD100237B6002E0012000F0B2F90D4B1B78DBB203F00203002BF5D006E0094B1B78DBB203F00203002BE3D000F095FB01E004237B60D8
:401480007B6818460837BD4680BD00BF7881FF1F2247004080B582B000AF00F01DFA00F04DFB0346002B23D100F0A4FB78607B68072B1AD102E0012000F080F9104B1B786F
:4014C000DBB203F00203002BF5D00D4B1B78DBB203F00203002B08D0094B1B78DBB29B08DBB2002B01D100237B6000F05BFB01E004237B607B6818460837BD4680BD00BFBD
:401500002247004080B582B000AFFFF7C3FF78607B68002B02D1FFF77FFF78607B6818460837BD4680BD00BF80B584B000AF03463A60FB710B46BB80FB793F2B01D91023D2
:4015400001E04FF48073FB81FB89B988F8793A6800F006F8B860BB6818461037BD4680BD80B586B000AFBA601A460346FB730B46BB811346FB8000237B61FB7B3F2B04D88B
:40158000FB7B042B01D901237B6197F90F30002B01DA01237B61FB7B3F2B04D9FB7B412B01D901237B61FB7B3F2B06D8BB89B3F5807F0CD901237B6109E0BB89802B01D91E
:4015C00001237B61FB88102B01D001237B61BB68002B01D101237B617B69002B60D100F0ADFA0346002B59D1FB88B989F87BBA6800F0C0F978617B69072B4CD102E00120B5
:4016000000F0DCF8294B1B78DBB203F00203002BF5D0264B1B78DBB203F00203002B09D0224B1B78DBB29B08DBB2002B02D100237B6102E04FF0FF337B617B69002B2AD1EA
:401640001B4B1A781A4B5B78B989F87B00F0F8F978617B69072B1ED102E0012000F0AEF8124B1B78DBB203F00203002BF5D00F4B1B78DBB203F00203002B09D00B4B1B7869
:40168000DBB29B08DBB2002B02D100237B6102E04FF0FF337B6100F085FA01E004237B617B6918461837BD4680BD00BF224700407881FF1F80B582B000AF00F0C5FA034690
:4016C000FB71194A184B1B78DBB243F00803DBB21370164A154B1B78DBB243F00803DBB21370134BC8221A70124A124B1B78DBB243F01003DBB213700F4A0F4B1B78DBB248
:4017000043F01003DBB2137000BF0C4B1B78DBB203F02003002BF8D0FB79184600F098FA00BF0837BD4680BDA0430040B043004001470040AC430040BC43004000470040AF
:4017400080B483B000AF0346FB7101BE00BF0C37BD4680BC704700BF80B400AF054A054B1B78DBB243F00103DBB2137000BFBD4680BC7047F646004080B582B000AF786020
:4017800008E00C4B1B68184600F056FA7B68A3F500437B607B68B3F5004FF2D8064B1B687A6802FB03F3184600F046FA00BF0837BD4680BDE080FF1FD880FF1F80B582B0BC
:4017C00000AF0346FB80FB88054A127802FB03F3184600F031FA00BF0837BD4680BD00BFDC80FF1F80B582B000AF00F02DFA0346FB7100BF00BF00BF00BF00BF00BF00BF1C
:4018000000BF00BF00BF00BF00BF00BF00BF00BF00BF0A4A094B1B889BB243F004039BB21380064B1B88BFF36F8FFB79184600F00FFA00BF0837BD4680BD00BF004800404B
:4018400080B584B000AF03463960FB710F4B1B68FB60FB791F2B02D90020FFF771FFFB7903F01F0310339B00FA6813441B68BB60FB7903F01F0310339B00FA6813443A682B
:401880001A60BB6818461037BD4680BD08ED00E080B582B000AF03460A46FB711346BB71BB79072B02D90020FFF74AFFFB791F2B02D90020FFF744FFFB7903F01F0303F122
:4018C000604303F56443BA795201D2B21A7000BF0837BD4680BD00BF80B582B000AF00F0B3F90346FB710C4A0B4B1B78DBB243F00803DBB21370094A084B1B78DBB243F09B
:401900000803DBB21370FB79184600F0A1F900BF0837BD4680BD00BFA0430040B043004080B584B000AF78600B46FB700023FB7313E00120FFF742FF0C4B1B78DBB203F0EB
:401940000103002BF5D0FB7B7A681344084A1278D2B21A70FB7B0133FB73FA7BFB789A42EAD3FB7B18461037BD4680BD224700402047004080B489B000AFBA601A460346B7
:40198000FB730B46BB811346FB800723FB612A4B1B78DBB203F00203002B45D0274BB6221A70264BD5221A70244B02221A70224B1B78DBB203F00203002B32D11F4AFB7B90
:4019C000137000237B8308E01C497B8BBA6813441B780B707B8B01337B837A8BFB889A42F2D3FB88B3F5807F20D1FB7B3F2B1DD8FB7B03F510331A02BB8913445B017B6178
:401A000000237B8309E00D497A8B7B6913441B78DBB20B707B8B01337B837B8B1F2BF2D904E00923FB6101E00423FB61FB6918462437BD4680BC70472247004020470040E5
:401A400090B484B000AF0446084611461A462346FB710346BB800B46BB711346FB700723FB601B4B1B78DBB203F00203002B26D0184BB6221A70174BD8221A70154B052200
:401A80001A70134B1B78DBB203F00203002B13D1104AFB7913700F4ABB881B0A9BB2DBB213700C4BBA88D2B21A700A4ABB791370084AFB78137004E00923FB6001E004233B
:401AC000FB60FB6818461037BD4690BC704700BF224700402047004080B485B000AF0346FB710723FB60134B1B78DBB203F00203002B16D0104BB6221A700F4BE1221A70F1
:401B00000D4B0E221A700B4B1B78DBB203F00203002B03D1084AFB79137004E00923FB6001E00423FB60FB6818461437BD4680BC704700BF224700402047004080B582B097
:401B400000AF04237B6000F07FF80346FB70124B1B78002B16D1104B01221A7000237B600E4B1B6803F00103002B0BD00B4A0B4B1B6823F00103136000BF00BF00BF084B70
:401B800001221A60FB78184600F062F87B6818460837BD4680BD00BF6881FF1F040008406C81FF1F80B582B000AF00F04DF80346FB710D4B00221A700C4B1B68012B0BD1AA
:401BC0000B4A0B4B1B6843F00103136000BF00BF00BF064B00221A60FB79184600F038F800BF0837BD4680BD6881FF1F6C81FF1F0400084080B483B000AF07237B600C4BE3
:401C00001B78DBB203F00203002B09D0094BB6221A70084BE0221A70064B0D221A7001E004237B607B6818460C37BD4680BC704722470040204700400230800803D000BFF0
:401C400001380046FCD17047EFF3108072B6704780F31088704700BF80B500AF62B60221002000F0C7F8024B01221A7000BF80BD7081FF1F80B500AF00F072FA00BF80BD60
:401C800080B500AF012000F023FC00BF80BD00BF80B586B000AFF8607A601A460B467B8113467B727B7A9BB21A46920013445B007B824022F968022000F040FB05E001201D
:401CC000FFF75AFD7B8A013B7B82022000F0F0FA0346002B02D17B8A002BF0D1022000F0E7FA0346002B02D110237B6104E07B687A891A8000237B617B6918461837BD46E5
:401D000080BD00BF80B586B000AFF8607A601A460B467B8113467B727B7A9BB21A46920013445B007B827B89402B01D940237B812F4B1B78002B1BD005E00120FFF71CFDA5
:401D40007B8A013B7B8200F08FFA0346002B02D17B8A002BF1D100F087FA0346002B13D000F08EFAFFF78CFF214B00221A700BE000F086FA0346002B06D000F075FA03464D
:401D8000002B01D0FFF77CFF7B7A9BB21A46920013445B007B8205E00120FFF7EDFC7B8A013B7B82012000F083FA0346012B02D07B8A002BF0D1012000F07AFA0346012BF0
:401DC0000CD17B891A46F968012000F03BFB03461A467B681A8000237B6104E07B6800221A8010237B617B6918461837BD4680BD7081FF1F80B582B000AF03460A46FB7148
:401E00001346BB71094B1B78002B04D100F010F8064B01221A70BA79FB791146184600F0CFF800BF0837BD4680BD00BF7181FF1F80B582B000AFFFF707FF0346FB71504ABF
:401E40004F4B1B78DBB243F00103DBB213704D4A4C4B1B78DBB243F00103DBB213704A4B01221A70494B02221A70494A484B1B78DBB203F07F03DBB213700020FFF79EFCCD
:401E8000444A444B1B78DBB223F00603DBB21370414A414B1B78DBB223F02003DBB213703C4A3C4B1B78DBB243F00103DBB213700120FFF783FC2820FFF780FC374A374B75
:401EC0001B78DBB203F07F03DBB21370334A334B1B78DBB223F04003DBB213702D4A2D4B1B78DBB243F00203DBB213700220FFF765FC284A274B1B78DBB243F00403DBB221
:401F00001370274B00221A70264B00221A70FB791846FFF79DFE07211720FFF7B9FC22491720FFF78DFC07211820FFF7B1FC1F491820FFF785FC07211520FFF7A9FC1C49DE
:401F40001520FFF77DFC07210020FFF7A1FC19490020FFF775FC07210120FFF799FC16490120FFF76DFC07210C20FFF791FC13490C20FFF765FC00BF0837BD4680BD00BF93
:401F8000A5430040B54300409D60004009600040106000409443004012600040F85100408460004085600040F12B00002D250000E52B0000512B0000992B0000B92F0000EA
:401FC00080B584B000AF03460A46FB711346BB710023FB7306E0FB7B314A0121D154FB7B0133FB73FB7B002BF5D02E4AFB7913702D4B00221A702D4B00221A702C4B0022C2
:402000001A702C4B00221A702B4B00221A702B4B00221A702A4B00221A702A4B4FF400021A60284B4FF080721A60264B4FF400121A60244B01221A60224B02221A60BB79B1
:40204000002B02D0012B09D011E01F4A1E4B1B78DBB223F00103DBB2137011E01A4A1A4B1B78DBB243F00103DBB2137008E0164A154B1B78DBB243F00103DBB2137000BF65
:40208000124B03221A70124B80221A700120FFF7D3FD104B04221A7000BF1037BD4680BD1C82FF1F9081FF1F9681FF1F9481FF1F9581FF1F9181FF1F7C81FF1F9381FF1F4F
:4020C0000C82FF1F00E100E00960004028600040086000401260004080B483B000AF0023FB7106E0FB79144A0121D154FB790133FB71FB79002BF5D0104B00221A70104B2A
:4021000000221A700F4B00221A700F4B00221A700E4B00221A700E4B00221A700D4B00221A700D4B03221A700C4B80221A7000BF0C37BD4680BC70471C82FF1F9681FF1F66
:402140009481FF1F9581FF1F9181FF1F7C81FF1F9381FF1F0C82FF1F286000400860004080B582B000AFFFF76FFD0346FB71314A304B1B78DBB203F07F03DBB213702E4A1F
:402180002D4B1B78DBB223F00403DBB213702B4A2A4B1B78DBB223F00103DBB21370284A274B1B78DBB223F00103DBB21370254A244B1B78DBB263F07F03DBB21370214AB3
:4021C000204B1B78DBB243F04003DBB21370FB791846FFF73DFD1C4B4FF400021A601A4B4FF080721A60184B4FF400121A60164B01221A60144B02221A6001F055FE134BC7
:402200004FF480521A60124B00221A70114B00221A70114B00221A70104B00221A70104B00221A700F4B00221A7000BF0837BD4680BD00BF0860004012600040A543004063
:40224000B5430040F851004080E100E080E200E09481FF1F9581FF1F9181FF1F7C81FF1F9381FF1F7181FF1F80B400AF034B1B78DBB21846BD4680BC704700BF9581FF1F8E
:4022800080B483B000AF0023FB71084B1B78DBB2002B05D0054B1B78FB71044B00221A70FB7918460C37BD4680BC70479481FF1F80B483B000AF0346FB71FA790649134698
:4022C0005B0013449B000B4401331B78DBB218460C37BD4680BC7047A081FF1F80B485B000AF0346FB710023FB81FB79002B1CD0FB79082B19D8104AFB791B0113441B78B5
:40230000DBB29BB203F00F03FB81FB891B029AB20949FB791B010B4401331B78DBB29BB21343FB81FB89023BFB81FB8918461437BD4680BC704700BFFC5F0040B0B485B05E
:4023400000AF03463960FB711346BB80FB79002B6DD0FB79082B6AD8B988FA79364813465B0013449B00034406331B889BB2C3F5007399420CD9FA792F4913465B001344DE
:402380009B000B4406331B889BB2C3F50073BB802A4CF979BB881B0A9BB2D8B2FA79264D13465B0013449B002B4403331B78DBB20343DAB20B0123441A70204AFB79B9883E
:4023C000C9B21B01134401330A461A703B68002B13D00023FB810CE01948FB79FA8939680A4412781B01034408331A70FB890133FB81FA89BB889A42EED3FA790E491346F2
:402400005B0013449B000B44013300221A700B48F979FA79084C13465B0013449B00234405331B78DAB20B01034402331A7000BF1437BD46B0BC7047A081FF1FFC5F004014
:402440007060004080B584B000AF03463960FB711346BB803B68002B30D0FB79002B2DD0FB79082B2AD8FB791846FFF737FF03461A46BB88934205D9FB791846FFF72EFFAD
:40248000034600E0BB88BB800023FB810DE0FB893A6813440D49FA7912010A4408321278D2B21A70FB890133FB81FA89BB889A42EDD3FB79184600F00BF801E00023BB80D6
:4024C000BB8818461037BD4680BD00BF7060004090B482B000AF0346FB71FB79002B1CD0FB79082B19D8FA790E4913465B0013449B000B44013300221A700B48F979FA7911
:40250000084C13465B0013449B00234405331B78DAB20B01034402331A7000BF0837BD4690BC7047A081FF1FFC5F004080B582B000AF374B1B78BB71BB7903F01003002B37
:4025400062D00123FB7197F90630002B12DABB7903F00F03012B02D00023FB711CE000F061F82C4B1B78DBB25BB2002B14DA0023FB7111E0BB7903F04003002B02D000F01D
:4025800095F809E0BB7903F02003002B02D000F0B3F801E00023FB71FB79002B34D01C4B1B78BB7197F90630002B2DDB1A4B1B78DAB21A4B1B78DBB21343BB71184ABB7970
:4025C0001370174B1B78DBB2BA799A421CD1114B1B78FB710E4B1B78DBB223F07F03BB71BB79002B0AD10A4B0A4A1278D2B21A70074B1B78DBB203F00F03FB71054B1B7804
:40260000DBB2FA799A42E2D100BF0837BD4680BD286000407D81FF1F9281FF1F0D82FF1F2960004080B582B000AF1D4B1B78FB711B4AFB7913701A4B1B78FB7197F907303E
:40264000002B03DA174AFB79137025E0022000F045FA154B1B78DBB203F06003202B08D0402B0BD0002B0ED100F0ACFC0346FB710CE001F029FC0346FB7107E001F0FAFB8A
:402680000346FB7102E00023FB7100BFFB79002B02D1044B03221A7000BF0837BD4680BD286000407D81FF1F0060004080B500AF104B1B78DBB2062B19D801A252F823F082
:4026C000EF260000EF260000DD260000EF260000E3260000EF260000E926000000F0F8F806E000F0A7F903E000F0D2F900E000BF00BF80BD9681FF1F80B500AF124B1B78D3
:40270000DBB2062B1DD801A252F823F0432700004327000029270000432700002F270000432700003527000000F0D8F80AE000F027F907E0032000F0D1F9044B03221A70C0
:4027400000E000BF00BF80BD9681FF1F7D81FF1F80B483B000AF0023FB71294B1B78DBB29AB2284B1B889BB213449AB2254B1A8015E02549FB79254A52681278D2B2CA54AC
:40278000224B5B680133214A5360FB790133FB711E4B1B889BB2013B9AB21C4B1A801B4B1B889BB2002B02D0FB79072BE1D9144B1B78DBB2082B02D0FB79002B0FD0144B8D
:4027C0001B78DBB283F07F03DB43DAB2104B1A70104B0F221A70104B02221A7005E00D4B02221A700C4B02221A700C4AFB791370034AFB79137000BF0C37BD4680BC70479D
:402800000C82FF1F1282FF1F006000408481FF1F9281FF1F7D81FF1F9681FF1F0D82FF1F80B582B000AF164B1B889BB2002B02D100F02EF81EE0134B02221A70124B002244
:402840001A7000F06BF9114BDB79DBB29BB21B029AB20E4B9B79DBB29BB21343FB80084B1B889BB2FA889A4202D2054AFB881380FFF76EFF012318460837BD4680BD00BF72
:402880008481FF1F9681FF1F9281FF1F0060004080B400AF094B02221A70094B80221A70084B0F221A70084B00221A70074B00221A7001231846BD4680BC70479681FF1FD2
:4028C0009281FF1F7D81FF1F0C82FF1F0D82FF1F80B500AFFFF73CFF00BF80BD80B500AF0A4B1B78DBB29AB2094B1B889BB213449AB2074B1A80074B00221A70012000F09A
:40290000EDF8054B03221A7000BF80BD0C82FF1F1282FF1F9681FF1F7D81FF1F80B582B000AF124B04221A70114B80221A7000F0F5F8104BDB79DBB29BB21B029AB20D4B36
:402940009B79DBB29BB21343FB800B4B1B889BB2FA889A4202D2084AFB881380074B0B221A70012318460837BD4680BD9681FF1F9281FF1F006000408481FF1F7D81FF1F69
:4029800080B483B000AF0023BB71234B1B78DBB203F00F03DBB2023BFB71FB799AB21F4B1B889BB213449AB21C4B1A8018E01C4B5B681C49BA798A5CD2B21A70184B5B6857
:4029C0000133174A5360BB790133BB71FB79013BFB71134B1B889BB2013B9AB2104B1A800F4B1B889BB2002B02D0FB79002BDED10D4AFB7913700D4B1B78DBB283F07F03C4
:402A0000DB43DAB2094B1A70094B0B221A7000BF0C37BD4680BC7047296000401282FF1F8481FF1F006000400D82FF1F9281FF1F7D81FF1F80B500AF054B00221A700120D2
:402A400000F04CF8034B03221A7000BF80BD00BF9681FF1F7D81FF1F80B400AF084B06221A70084B06221A70074B80221A70074B00221A7001231846BD4680BC704700BF79
:402A80009681FF1F7D81FF1F9281FF1F0D82FF1F80B500AF0D4B1B78DBB2002B0AD00C4A0A4B1B78DBB263F07F03DBB21370074B00221A70074B00221A70012000F00EF8C3
:402AC000054B03221A7000BF80BD00BF7C81FF1F086000409681FF1F7D81FF1F80B483B000AF0346FB710B4B9B68002B0CD0094B9B68FA791A70074B9B68074A128892B205
:402B00005A80044B00229A6000BF0C37BD4680BC704700BF8481FF1F1282FF1F80B400AF094B00221A80094B9B68002B07D0074B9B6800221A70054B9B6800225A8000BF69
:402B4000BD4680BC704700BF1282FF1F8481FF1F80B400AF0D4B01221A700D4B9B7C0D4B1B7BDBB203F00303012B08D0094BDB7BDBB283F07F03DB43DAB2064BDA73054B38
:402B800001225A7300BFBD4680BC70470B600040FC5F0040A081FF1F80B400AF0E4B02221A700E4B93F822300D4B1B7EDBB203F00303012B08D00A4BDB7EDBB283F07F0320
:402BC000DB43DAB2064BDA76054B01225A7600BFBD4680BC704700BF0B600040FC5F0040A081FF1F80B400AF00BFBD4680BC704780B500AFFFF770FA00BF80BD80B582B00F
:402C000000AF0023FB71714B1B79BB716F4B1B78DBB25BB2002B6CDA6C4B5B78DBB2013B052B00F2BE8001A252F823F08F2C0000A92C0000D32C0000A32D0000A32D0000A0
:402C4000452C0000614BDB78DBB2212B0CD100F0C7F85F4B1B889BB2002B00F0A480FFF7DFFD0346FB719EE0584BDB78DBB2222B40F0998000F0F2F8554B1B889BB2002BF3
:402C800000F09180FFF7CCFD0346FB718BE000F02DF94F4B1B889BB2002B00F08680FFF7BFFD0346FB7180E0BB79002B7FD1474B9B78DBB2002B7AD1454B01221A80BB79D4
:402CC000444A1344424A5360FFF7AAFD0346FB716DE0BB79002B6CD13D4B01221A80BB793D4A13443A4A5360FFF79AFD0346FB715FE0364B5B78DBB20A2B10D00B2B3DD02D
:402D0000092B00D05CE000F0F1F8314B1B889BB2002B50D0FFF702FE0346FB714BE0BB79002B4AD1294B9B78DBB2002B45D1BB79264AD278D1B2274AD154BB79254AD35C45
:402D4000DAB2BB792549CB5CDBB29A4204D2BB79224A0021D1540CE0BB79204AD35CDBB2012B06D9BB79BA791A498A5CD1B21B4AD154FFF771FE0346FB711EE0BB79002B54
:402D80001DD1124B9B78DBB2012B18D8BB790F4A9278D1B2104AD154FFF75EFE0346FB710DE000BF0CE000BF0AE000BF08E000BF06E000BF04E000BF02E000BF00E000BF3D
:402DC000FB7918460837BD4680BD00BF006000408481FF1F1482FF1F1C82FF1F1882FF1F80B584B000AF194B1B78DBB2013BDBB2184600F087FEF860154B1B79FB72FB7A72
:402E00000233DB00FA681344FB60FB685B68FB60FB7A104AD35CDBB2DB00FA681344FB60FB685B68FB60FB682033FB60FB685B687B607B681B78DBB29AB2074B1A80064A55
:402E40007B68536000BF1037BD4680BD9581FF1F006000408081FF1F8481FF1F80B584B000AF1E4B1B78DBB2013BDBB2184600F049FEF8601A4B1B79FB72FB7A0233DB001E
:402E8000FA681344FB60FB685B68FB60FB7A154AD35CDBB2DB00FA681344FB60FB685B68FB60FB681833FB60FB685B687B607B6801331B78DBB29BB21B029AB27B681B7810
:402EC000DBB29BB213439AB2074B1A807B680233054A536000BF1037BD4680BD9581FF1F006000408081FF1F8481FF1F80B584B000AF2D4B00221A802C4B1B78DBB2013BD5
:402F0000DBB2184600F0FEFDF860294BDB78FB72274B1B79BB72BB7A0233DB00FA681344FB60FB685B68FB60BB7A002B38D1BB7A204AD35CDBB2DB00FA681344FB60FB680C
:402F40005B68FB60FB7A002B2AD0FB7A032B27D8FB7A03F10053013BDB00FA681344FB60134B9B78FB72FB681B78FA7A9A4217D8FB685B687B60FA7A13465B0013449B00E2
:402F80001A467B6813447B607B685B68064A53607B681A88044B1A807B689B68024A936000BF1037BD4680BD8481FF1F9581FF1F006000408081FF1F80B500AF00F074FFBD
:402FC00000BF80BD80B586B000AF0023FB75AE4B1B78FB7100233B61AC4B00221A8097F90730002B80F2FA80A74B5B78DBB20A2B00F2128201A252F823F000BF33310000B0
:4030000019340000193400001934000019340000193400002930000019340000A731000019340000BD310000974BDB78DBB2012B0ED100F08FFDB860BB685B68934A53607F
:40304000924B12221A80FFF7EBFB0346FB75E5E18D4BDB78DBB2022B25D18B4B9B78DBB2184600F04FFDB860BB68002B00F0D681BB685B68854A5360844B5B6803331B78EF
:40308000DBB29BB21B029AB2804B5B6802331B78DBB29BB213439AB27C4B1A80FFF7C0FB0346FB75BAE1784BDB78DBB2032B3BD10023FB73764B3B6109E03B691B78BB717E
:4030C000BB793A6913443B61FB7B0133FB736E4B9B78DBB2FA7B9A4204D23B691B78DBB2002BEAD1684B9B78DBB2002B08D0664B9B78DAB2674B1B7C9A4201D1664B3B61DA
:403100003B691B78DBB2002B00F088813B691B78DBB29AB25D4B1A805C4A3B695360FFF77FFB0346FB7579E100F0CEFE0346FB7574E1FB7903F00303002B20D0022B00D086
:4031400030E0524B02221A804F4B1B79DBB203F07F02524913465B0013449B000B4402331B78DAB24E4B1A704D4B00225A70474B4B4A5A60FFF754FB0346FB7512E0434BCB
:4031800002221A80474B1B78DAB2454B1A70444B00225A703D4B424A5A60FFF741FB0346FB7500BF41E1394B01221A80374B3E4A5A60FFF735FB0346FB7536E1334B0122D5
:4031C0001A80314B1B79DBB21A46384B13442F4A5360FFF725FB0346FB7526E12A4B5B78DBB2013B0A2B00F21B8101A252F823F0FD320000213400008B33000021340000F1
:403200001D3200002134000021340000213400003132000021340000B93200001A4B9B78DAB2234B1A70FFF717FC0346FB75FCE0154B9B787B717B79002B06D07B79013B7F
:40324000DBB2184600F05EFCB8607B79002B02D0BB68002B03D17B79002B40F0E380124B1B78DBB27A799A4208D00F4A7B791370104B01221A70012000F086F9FFF7ECFBD3
:403280000346FB75CEE000BF006000408481FF1FE4400000A440000038410000A081FF1F7481FF1F9381FF1F9581FF1F8081FF1F7C81FF1F9481FF1F00F0A4FD0346002B7A
:4032C00000F0B2805B4B1B793B715A4B1B79DAB2594B1A703B79594AD35CDAB23B795849CB5CDBB29A4204D0564B01221A7000F0DBFAFFF7B1FB0346FB7595E0FB7903F0BE
:403300000303012B20D0012B0CD3022B00D03BE0484B9B78DBB2002B31D100F0C7FC0346FB752CE0434B9B78DBB2012B29D1464B1B78DBB223F00203DAB2434B1A70FFF7B9
:403340008BFB0346FB751CE03A4B1B79DBB2002B19D1384B9B78DBB2DB43DBB2354A1279D2B211461046394A125CD2B21340DAB2364B5A54FFF770FB0346FB7503E000BF0F
:4033800053E000BF51E000BF4FE0FB7903F00303012B20D0012B0CD3022B00D03BE0254B9B78DBB2002B31D100F00CFC0346FB752CE0204B9B78DBB2012B29D1224B1B7825
:4033C000DBB243F00203DAB21F4B1A70FFF744FB0346FB751CE0174B1B79DBB2002B19D1144B9B78DBB2DB43DBB2124A1279D2B211461046154A125CD2B21340DAB2134BB6
:403400005A54FFF729FB0346FB7503E000BF0CE000BF0AE000BF08E000BF06E000BF04E000BF02E000BF00E000BFFB7D18461837BD4680BD006000409181FF1F1082FF1F01
:403440008081FF1F9481FF1F9381FF1F9881FF1F90B482B000AF0123FB7180E0464AFB791B0113440C221A70FA79444913465B0013449B000B4405331B78DBB2002B1CD0E9
:40348000FA793E4913465B0013449B000B4404331B78DBB25BB2002B07DA394AFB791B01134402330C221A700EE0354AFB791B011344023308221A7006E0314AFB791B0128
:4034C0001344023380221A702B48F979FA792B4C13465B0013449B00234406331B889BB2DAB20B01034406331A702348F979FA79224C13465B0013449B00234406331B88C6
:403500009BB21B0A9BB2DAB20B01034407331A701948F979FA79194C13465B0013449B00234406331B889BB2DAB20B01034404331A701148F979FA79104C13465B00134403
:403540009B00234406331B889BB21B0A9BB2DAB20B01034405331A70FB790133FB71FB79082B7FF67BAF074BFF221A7000BF0837BD4690BC704700BF70600040A081FF1FA4
:40358000FC5F00400A60004080B588B000AF0346FB7100237B830023FB7747E0FA7FA94913465B0013449B000B4400221A70FA7FA44913465B0013449B000B44023300225A
:4035C0001A70FA7F9F4913465B0013449B000B44033300221A70FA7F9A4913465B0013449B000B44083300221A80FA7F954913465B0013449B000B440A3300221A70FA7F13
:40360000904913465B0013449B000B44013300221A70FA7F8B4913465B0013449B000B44053300221A70FB7F0133FB77FB7F082BB4D9FB79002B10D000237B770AE07B7FE4
:40364000814A0021D1547B7F804A0021D1547B7F01337B777B7F002BF1D07D4B1B78DBB2002B00F01A817A4B1B78DBB2013BDBB2184600F047FA38613B695B68FB60FB6890
:4036800007331B7803F04003002B08D0714B1B78DBB243F00103DAB26E4B1A7007E06D4B1B78DBB223F00103DAB26A4B1A703B6908333B613B691B78FB7701237B7794E0D3
:4036C0003B695B687B610023BB7786E07A7F7B699B7803F07F039A4279D17A7F594913465B0013449B000B4408331B889AB27B699B889A420BD27A7F7B69988851491346D7
:403700005B0013449B000B44083302461A807B691B781A464C4B9B5CDAB27B695B789A4255D17A7F7B699878464913465B0013449B000B44043302461A707A7F7B69D8787F
:40374000404913465B0013449B000B4402461A707B69DB7803F00303FB727B699B785BB2002B1ADA7A7FFB7A012B01D1072000E00D20344913465B0013449B000B440533EF
:4037800002461A707A7F2F4913465B0013449B000B44013301221A7019E07A7FFB7A012B01D1052000E00920264913465B0013449B000B44053302461A707A7F2149134633
:4037C0005B0013449B000B44013300221A707B6908337B61BB7F0133BB77BA7FFB7F9A42FFF474AF7B7F01337B777B7F082B7FF667AF3B695B687B6100237B7714E07B6905
:403800009B7803F07F027B6918780E4913465B0013449B000B440A3302461A707B6908337B617B7F01337B777A7FFB7F9A42E6D300F0A2F90246084B1A6000237B8301232A
:40384000FB7725E0A081FF1F8081FF1F1082FF1F9581FF1F9381FF1F9C81FF1FFA7F114913465B0013449B000B4406337A8B1A80FA7F0C4913465B0013449B000B44083384
:403880001B889AB27B8B13447B83FB7F0133FB77FB7F082BE2D9FFF7DBFD00BF2037BD4680BD00BFA081FF1F90B585B000AF8F4B1B78DBB2002B00F015818C4B1B78DBB249
:4038C000013BDBB2184600F01DF978607B6808337B607B681B78FB707B685B68BB60844B1B78BB700023FB73F7E0BB681B78BA789A4240F0EC80BB787E4AD35CDAB2BB68FA
:403900005B789A4240F0E380BB689B7803F07F037B70BB68DB7803F003033B707A78764913465B0013449B000B44033300221A707A78BB689878704913465B0013449B0089
:403940000B44043302461A707A78BB68D8786A4913465B0013449B000B4402461A707A78BB689888644913465B0013449B000B44083302461A80BB689B785BB2002B1ADABA
:403980007A783B78012B01D1072000E00D205A4913465B0013449B000B44053302461A707A78554913465B0013449B000B44013301221A7019E07A783B78012B01D1052067
:4039C00000E009204C4913465B0013449B000B44053302461A707A78474913465B0013449B000B44013300221A70444A7B781B011344023301221A70404879787A783E4C08
:403A000013465B0013449B00234408331B889BB21B0A9BB2DAB20B0103441A70374879787A78354C13465B0013449B00234408331B889BB2DAB20B01034401331A70304843
:403A400079787A782C4C13465B0013449B00234406331B889BB2DAB20B01034406331A70274879787A78244C13465B0013449B00234406331B889BB21B0A9BB2DAB20B0111
:403A8000034407331A701E4879787A781A4C13465B0013449B00234406331B889BB2DAB20B01034404331A70154879787A78124C13465B0013449B00234406331B889BB2A2
:403AC0001B0A9BB2DAB20B01034405331A70BB680833BB60FB7B0133FB73FA7BFB789A42FFF403AF00BF1437BD4690BD9581FF1F9181FF1F8081FF1FA081FF1FFC5F004002
:403B00007060004080B485B000AF0346FB710F4B1B78DBB20E4ADB0013445B68FB60FB681033FB60FB681B78FA799A4202D30023FB6005E0FB79DB00FA6813445B68FB60E2
:403B4000FB6818461437BD4680BC70479081FF1F0042000080B400AF054B1B78DBB2054ADB0013445B681846BD4680BC704700BF9081FF1F0042000080B584B000AF104B44
:403B80001B78DBB2013BDBB21846FFF7BBFFB860BB68002B0DD0BB685B681B79FB71FB790233DB00BA681344BB60BB685B68FB6001E00023FB60FB6818461037BD4680BDE5
:403BC0009581FF1F80B582B000AF0023FB71344B1B79DBB203F07F03BB71BB79002B5AD0BB79082B57D8BA79B9792E480B465B000B449B00034402331B78DBB243F0010348
:403C0000D8B2284913465B0013449B000B44023302461A70BA79234913465B0013449B000B44033300221A70BA79B9791D480B465B000B449B00034401331B78DBB243F0E9
:403C40000203D8B2174913465B0013449B000B44013302461A70BA79124913465B0013449B000B4404331B78DBB25BB2002B07DA0D4ABB791B01134402338D221A7006E015
:403C8000094ABB791B011344023389221A70FEF7E3FE0346FB71FB7918460837BD4680BD00600040A081FF1FFC5F004080B582B000AF0023FB71504B1B79DBB203F07F0374
:403CC000BB71BB79002B00F09280BB79082B00F28E80BA79B97949480B465B000B449B00034402331B78DBB223F00103D8B2434913465B0013449B000B44023302461A707F
:403D0000BA793E4913465B0013449B000B44033300221A703A49BB793948BA79120102441278D2B202F07F02D2B21B010B441A70BA79B97931480B465B000B449B00034479
:403D400001331B78DBB223F00203D8B22B4913465B0013449B000B44013302461A70BA79264913465B0013449B000B4404331B78DBB25BB2002B1BDABA79204913465B0073
:403D800013449B000B4401331B78DBB2012B07D11B4ABB791B01134402330C221A7022E0174ABB791B01134402330D221A701AE0BA79124913465B0013449B000B440133C8
:403DC0001B78DBB2012B07D10D4ABB791B011344023308221A7006E0094ABB791B011344023309221A70FEF737FE0346FB71FB7918460837BD4680BD00600040A081FF1FDF
:403E0000FC5F004080B584B000AF0023FB73154B1B79BB73144B1B78DBB2013BDBB21846FFF770FEB860BB685B681B79FB71BA7BFB799A4202D9BB7B012B0ED8BB7BBA7B01
:403E40000A498A5CD1B20A4AD154BB7B054A9278D1B2064AD1540123FB73FB7B18461037BD4680BD006000409581FF1F8081FF1F1082FF1F80B483B000AF0023FB71094BFD
:403E80001B78DBB25BB2002B06DA064B5B78DBB2012B00D000E000BFFB7918460C37BD4680BC70470060004080B400AF054B1B78DBB203F040039B09DBB21846BD4680BC7C
:403EC000704700BF8F45004080B582B000AF0023BB711B4B1B78DBB203F00303012B02D0022B04D012E0164B1B79FB7111E0144B1B79DBB203F07F02124913465B001344B7
:403F00009B000B440A331B78FB7102E00023FB7100BFFB79012B0ED80B4B1A68FB7913441B78032B04D1FEF769FE0346BB7102E00023BB7100BFBB7918460837BD4680BD9A
:403F400000600040A081FF1F9C81FF1F014B1868704700BF4481FF1F0E4B70B51E460E4C0025E41AA410A54204D056F8253098470135F8E700F04AF9084B094C1E46E41A60
:403F8000A4100025A54204D056F8253098470135F8E770BD1842000018420000184200002042000010B5431E0A44914204D011F8014B03F8014FF8E710BD0346024493426E
:403FC00002D003F8011BFAE770470000A20000000043000000000000405100403000C0510040100000000140001000140140000800400140000A004C0140000200500140A0
:404000002000000001450040025200400117014001190140034001400241014002420140024301400347014003480140024C0140015101407E021C3E7C40EE0AEE0A33800D
:404040003640CC30A640A780A640A780A640A78008080F40C20CAE40AF80EE50AC08AF40000A0000020000FFFD000000000000004000003030000000C0000000000000FF15
:40408000FF00000000000000000000CCCC00000000000000003E0000000000006910162E003C01011201000200000008B4041DB7023001028001000009022900010100801B
:4040C000000904000002030000020921110100012224000705010340000107058203400001000000040309042C0343007900700072006500730073002000530065006D0095
:40410000690063006F006E0064007500630074006F0072002203500053006F0043003300200042006F006F0074006C006F00610064006500720000000A03300030003000D0
:4041400031000000240005010900A1000900A1000900150025FF7508954091020900150025FF750895408102C0C00000410000002482FF1F2082FF1F410000006882FF1FC4
:40418000AC82FF1F000000006C41000000000000784100000000000000000000010000004441000001000000CA40000001000000844100000000010340000300000082032A
:4041C000400003000300000001000000B840000002000000B441000001000000AC41000000000000C441000001000000A4400000000000000000000001000000C8410000A7
:4042000001000000E841000043000000F8B500BFF8BC08BC9E46704751000000E1050000F8B500BFF8BC08BC9E4670472D00000040420000C880FF1F8000000068010000DE
:4042400000000000CC3F0000D03F00000090D00300FA0000400000000000007D000000000000000000000000000000000000000000000000000000000000000008420000C0
:40428000000000000000000000000000000000000000000000000000000000000000000000000000000000000000000000000000000000000000000000000000E480FF1F7C
:4042C00000000000000000000000000000000000000000000000000000000000000000000000000000000000000000000000000000000000000000000000000000000000BE
:40430000000000000000000000000000000000000000000000000000000000000000000000000000000000000000000000000000000000000000000000000000000000007D
:40434000000000000000000000000000000000000000000000000000000000000000000000000000000000000000000000000000000000000000000000000000000000003D
:4043800000000000000000000000000000000000000000000000000000000000000000000000000000000000000000000000000000000000000000000000000000000000FD
:020000040003F7
:40FFC00000000000000000000000000000000000000000000100010000000000000000000000000000000000000000000000000000000000000000000000000000000000FF
:0200000480007A
:4000000000000000000000000000000000000000000000000000000000000000000000000000000000000000000000000000000000000000000000000000000000000000C0
:400040000000000000000000000000000000000000000000000000000000000000000000000000000000000000000000000000000000000000000000000000000000000080
:400080000000000000000000000000000000000000000000000000000000000000000000000000000000000000000000000000000000000000000000000000000000000040
:4000C0000000000000000000000000000000000000000000000000000000000000000000000000000000000000000000000000000000000000000000000000000000000000
:0200000490006A
:04000000AA0042050B
:0200000490105A
:04000000BC90ACAF55
:0200000490303A
:02000000A80254
:0200000490402A
:4000000000000000000000000000000000000000000000000000000000000000000000000000000000000000000000000000000000000000000000000000000000000000C0
:400040000000000000000000000000000000000000000000000000000000000000000000000000000000000000000000000000000000000000000000000000000000000080
:400080000000000000000000000000000000000000000000000000000000000000000000000000000000000000000000000000000000000000000000000000000000000040
:4000C0000000000000000000000000000000000000000000000000000000000000000000000000000000000000000000000000000000000000000000000000000000000000
:0200000490501A
:0C00000000012E16106900012E2FB86BB5
:00000001FF